{
  "contractName": "PartiLivro",
  "abi": [
    {
      "constant": true,
      "inputs": [
        {
          "name": "",
          "type": "uint256"
        }
      ],
      "name": "books",
      "outputs": [
        {
          "name": "id",
          "type": "uint256"
        },
        {
          "name": "content",
          "type": "string"
        },
        {
          "name": "completed",
          "type": "bool"
        }
      ],
      "payable": false,
      "stateMutability": "view",
      "type": "function",
      "signature": "0x68744046"
    },
    {
      "constant": true,
      "inputs": [],
      "name": "bookCount",
      "outputs": [
        {
          "name": "",
          "type": "uint256"
        }
      ],
      "payable": false,
      "stateMutability": "view",
      "type": "function",
      "signature": "0xb905ad78"
    },
    {
      "inputs": [],
      "payable": false,
      "stateMutability": "nonpayable",
      "type": "constructor",
      "signature": "constructor"
    },
    {
      "anonymous": false,
      "inputs": [
        {
          "indexed": false,
          "name": "id",
          "type": "uint256"
        },
        {
          "indexed": false,
          "name": "content",
          "type": "string"
        },
        {
          "indexed": false,
          "name": "completed",
          "type": "bool"
        }
      ],
      "name": "BookCreated",
      "type": "event",
      "signature": "0xc4d546f935a8c40cbe13e56a7fad2096d8655262a523f5dde0e61a9ba0ec077d"
    },
    {
      "anonymous": false,
      "inputs": [
        {
          "indexed": false,
          "name": "id",
          "type": "uint256"
        },
        {
          "indexed": false,
          "name": "completed",
          "type": "bool"
        }
      ],
      "name": "BookCompleted",
      "type": "event",
      "signature": "0x5bb3f28444bfcf8bc8a49a85f1d1f51aa218675f7af7d0f161c5ac47877111af"
    },
    {
      "constant": false,
      "inputs": [
        {
          "name": "_content",
          "type": "string"
        }
      ],
      "name": "createBook",
      "outputs": [],
      "payable": false,
      "stateMutability": "nonpayable",
      "type": "function",
      "signature": "0xb9f72b7d"
    },
    {
      "constant": false,
      "inputs": [
        {
          "name": "_id",
          "type": "uint256"
        }
      ],
      "name": "toggleCompleted",
      "outputs": [],
      "payable": false,
      "stateMutability": "nonpayable",
      "type": "function",
      "signature": "0x455f5024"
    }
  ],
  "bytecode": "0x60806040526000805534801561001457600080fd5b50610089606060405190810160405280602681526020017f436865636b206f75742070617274696c6976726f2e617a75726577656273697481526020017f65732e6e6574000000000000000000000000000000000000000000000000000081525061008e640100000000026401000000009004565b61024d565b60008054600190810180835560408051606081018252828152602080820187815282840187905293865284815291909420845181559151805192936100db939085019291909101906101b2565b5060408201518160020160006101000a81548160ff0219169083151502179055509050507fc4d546f935a8c40cbe13e56a7fad2096d8655262a523f5dde0e61a9ba0ec077d600054826000604051808481526020018060200183151515158152602001828103825284818151815260200191508051906020019080838360005b8381101561017357818101518382015260200161015b565b50505050905090810190601f1680156101a05780820380516001836020036101000a031916815260200191505b5094505050505060405180910390a150565b828054600181600116156101000203166002900490600052602060002090601f016020900481019282601f106101f357805160ff1916838001178555610220565b82800160010185558215610220579182015b82811115610220578251825591602001919060010190610205565b5061022c929150610230565b5090565b61024a91905b8082111561022c5760008155600101610236565b90565b6106448061025c6000396000f3fe6080604052600436106100615763ffffffff7c0100000000000000000000000000000000000000000000000000000000600035041663455f502481146100665780636874404614610092578063b905ad7814610146578063b9f72b7d1461016d575b600080fd5b34801561007257600080fd5b506100906004803603602081101561008957600080fd5b5035610220565b005b34801561009e57600080fd5b506100bc600480360360208110156100b557600080fd5b5035610380565b604051808481526020018060200183151515158152602001828103825284818151815260200191508051906020019080838360005b838110156101095781810151838201526020016100f1565b50505050905090810190601f1680156101365780820380516001836020036101000a031916815260200191505b5094505050505060405180910390f35b34801561015257600080fd5b5061015b61042f565b60408051918252519081900360200190f35b34801561017957600080fd5b506100906004803603602081101561019057600080fd5b8101906020810181356401000000008111156101ab57600080fd5b8201836020820111156101bd57600080fd5b803590602001918460018302840111640100000000831117156101df57600080fd5b91908080601f016020809104026020016040519081016040528093929190818152602001838380828437600092019190915250929550610435945050505050565b610228610559565b60008281526001602081815260409283902083516060810185528154815281840180548651600296821615610100026000190190911695909504601f810185900485028601850190965285855290949193858401939092908301828280156102d15780601f106102a6576101008083540402835291602001916102d1565b820191906000526020600020905b8154815290600101906020018083116102b457829003601f168201915b50505091835250506002919091015460ff161515602091820152604080830180511590526000858152600180845291902083518155838301518051949550859491936103229385019291019061057d565b50604091820151600291909101805460ff1916911515919091179055818101518151848152901515602082015281517f5bb3f28444bfcf8bc8a49a85f1d1f51aa218675f7af7d0f161c5ac47877111af929181900390910190a15050565b600160208181526000928352604092839020805481840180548651600296821615610100026000190190911695909504601f8101859004850286018501909652858552909491939290919083018282801561041c5780601f106103f15761010080835404028352916020019161041c565b820191906000526020600020905b8154815290600101906020018083116103ff57829003601f168201915b5050506002909301549192505060ff1683565b60005481565b60008054600190810180835560408051606081018252828152602080820187815282840187905293865284815291909420845181559151805192936104829390850192919091019061057d565b5060408201518160020160006101000a81548160ff0219169083151502179055509050507fc4d546f935a8c40cbe13e56a7fad2096d8655262a523f5dde0e61a9ba0ec077d600054826000604051808481526020018060200183151515158152602001828103825284818151815260200191508051906020019080838360005b8381101561051a578181015183820152602001610502565b50505050905090810190601f1680156105475780820380516001836020036101000a031916815260200191505b5094505050505060405180910390a150565b60606040519081016040528060008152602001606081526020016000151581525090565b828054600181600116156101000203166002900490600052602060002090601f016020900481019282601f106105be57805160ff19168380011785556105eb565b828001600101855582156105eb579182015b828111156105eb5782518255916020019190600101906105d0565b506105f79291506105fb565b5090565b61061591905b808211156105f75760008155600101610601565b9056fea165627a7a7230582073f3c1d2269c12ce43b9942e529e9fceec1c7c1288b86747afb62ee13c09dabf0029",
  "source": "//SPDX-License-Identifier: MIT\npragma solidity >=0.4.22 <0.9.0;\n\ncontract PartiLivro {\n    uint public bookCount = 0;\n\n    struct Book {\n        uint id;\n        string content;\n        bool completed;\n    }\n\n    mapping(uint => Book) public books;\n\n    event BookCreated(\n        uint id,\n        string content,\n        bool completed\n    );\n\n    event BookCompleted(\n        uint id,\n        bool completed\n    );\n\n    constructor() public {\n        createBook(\"Check out partilivro.azurewebsites.net\");\n    }\n\n    function createBook(string memory _content) public {\n        bookCount ++;\n        books[bookCount] = Book(bookCount, _content, false);\n        emit BookCreated(bookCount, _content, false);\n    }\n\n    function toggleCompleted(uint _id) public {\n    Book memory _book = books[_id];\n    _book.completed = !_book.completed;\n    books[_id] = _book;\n    emit BookCompleted(_id, _book.completed);\n  }\n}\n\n",
  "sourcePath": "/mnt/c/code/eth-todo-list/contracts/PartiLivro.sol",
  "compiler": {
    "name": "solc",
    "version": "0.5.0+commit.1d4f565a.Emscripten.clang"
  },
  "schemaVersion": "3.0.1",
  "updatedAt": "2022-12-04T21:21:13.048Z",
  "devdoc": {
    "methods": {}
  },
  "userdoc": {
    "methods": {}
  }
}