{
  "contractName": "PartiLivro",
  "abi": [
    {
      "constant": true,
      "inputs": [
        {
          "name": "",
          "type": "uint256"
        }
      ],
      "name": "books",
      "outputs": [
        {
          "name": "id",
          "type": "uint256"
        },
        {
          "name": "content",
          "type": "string"
        },
        {
          "name": "completed",
          "type": "bool"
        },
        {
          "name": "author",
          "type": "string"
        },
        {
          "name": "publishing",
          "type": "string"
        },
        {
          "name": "pages",
          "type": "string"
        },
        {
          "name": "date",
          "type": "string"
        }
      ],
      "payable": false,
      "stateMutability": "view",
      "type": "function",
      "signature": "0x68744046"
    },
    {
      "constant": true,
      "inputs": [],
      "name": "bookCount",
      "outputs": [
        {
          "name": "",
          "type": "uint256"
        }
      ],
      "payable": false,
      "stateMutability": "view",
      "type": "function",
      "signature": "0xb905ad78"
    },
    {
      "inputs": [],
      "payable": false,
      "stateMutability": "nonpayable",
      "type": "constructor",
      "signature": "constructor"
    },
    {
      "anonymous": false,
      "inputs": [
        {
          "indexed": false,
          "name": "id",
          "type": "uint256"
        },
        {
          "indexed": false,
          "name": "content",
          "type": "string"
        },
        {
          "indexed": false,
          "name": "completed",
          "type": "bool"
        },
        {
          "indexed": false,
          "name": "author",
          "type": "string"
        },
        {
          "indexed": false,
          "name": "publishing",
          "type": "string"
        },
        {
          "indexed": false,
          "name": "pages",
          "type": "string"
        },
        {
          "indexed": false,
          "name": "date",
          "type": "string"
        }
      ],
      "name": "BookCreated",
      "type": "event",
      "signature": "0xaa251e0cc6d510b7ed5b682cc434f6a0c4a50336dca302eaf5cd0240988dd998"
    },
    {
      "anonymous": false,
      "inputs": [
        {
          "indexed": false,
          "name": "id",
          "type": "uint256"
        },
        {
          "indexed": false,
          "name": "completed",
          "type": "bool"
        }
      ],
      "name": "BookCompleted",
      "type": "event",
      "signature": "0x5bb3f28444bfcf8bc8a49a85f1d1f51aa218675f7af7d0f161c5ac47877111af"
    },
    {
      "constant": false,
      "inputs": [
        {
          "name": "_content",
          "type": "string"
        },
        {
          "name": "_author",
          "type": "string"
        },
        {
          "name": "_publishing",
          "type": "string"
        },
        {
          "name": "_pages",
          "type": "string"
        },
        {
          "name": "_date",
          "type": "string"
        }
      ],
      "name": "createBook",
      "outputs": [],
      "payable": false,
      "stateMutability": "nonpayable",
      "type": "function",
      "signature": "0x2ffb3df4"
    },
    {
      "constant": false,
      "inputs": [
        {
          "name": "_id",
          "type": "uint256"
        }
      ],
      "name": "toggleCompleted",
      "outputs": [],
      "payable": false,
      "stateMutability": "nonpayable",
      "type": "function",
      "signature": "0x455f5024"
    }
  ],
  "bytecode": "0x6080604052600080553480156200001557600080fd5b50604080518082018252600481527f313938360000000000000000000000000000000000000000000000000000000060208083019190915282518084018452600c81527f4a6f726765204f7277656c6c00000000000000000000000000000000000000008183015283518085018552600d81527f456469746f726120416c706861000000000000000000000000000000000000008184015284518086018652600381527f3431360000000000000000000000000000000000000000000000000000000000818501528551808701909652600a86527f30312f30372f3230303900000000000000000000000000000000000000000000938601939093526200012994919290916401000000006200012f810204565b62000535565b6000805460019081018083556040805160e08101825282815260208082018b8152828401879052606083018b9052608083018a905260a0830189905260c0830188905293865284815291909420845181559151805192936200019a9390850192919091019062000490565b50604082015160028201805460ff191691151591909117905560608201518051620001d091600384019160209091019062000490565b5060808201518051620001ee91600484019160209091019062000490565b5060a082015180516200020c91600584019160209091019062000490565b5060c082015180516200022a91600684019160209091019062000490565b509050507faa251e0cc6d510b7ed5b682cc434f6a0c4a50336dca302eaf5cd0240988dd998600054866000878787876040518088815260200180602001871515151581526020018060200180602001806020018060200186810386528c818151815260200191508051906020019080838360005b83811015620002b85781810151838201526020016200029e565b50505050905090810190601f168015620002e65780820380516001836020036101000a031916815260200191505b5086810385528a5181528a516020918201918c019080838360005b838110156200031b57818101518382015260200162000301565b50505050905090810190601f168015620003495780820380516001836020036101000a031916815260200191505b5086810384528951815289516020918201918b019080838360005b838110156200037e57818101518382015260200162000364565b50505050905090810190601f168015620003ac5780820380516001836020036101000a031916815260200191505b5086810383528851815288516020918201918a019080838360005b83811015620003e1578181015183820152602001620003c7565b50505050905090810190601f1680156200040f5780820380516001836020036101000a031916815260200191505b50868103825287518152875160209182019189019080838360005b83811015620004445781810151838201526020016200042a565b50505050905090810190601f168015620004725780820380516001836020036101000a031916815260200191505b509c5050505050505050505050505060405180910390a15050505050565b828054600181600116156101000203166002900490600052602060002090601f016020900481019282601f10620004d357805160ff191683800117855562000503565b8280016001018555821562000503579182015b8281111562000503578251825591602001919060010190620004e6565b506200051192915062000515565b5090565b6200053291905b808211156200051157600081556001016200051c565b90565b61113f80620005456000396000f3fe6080604052600436106100615763ffffffff7c01000000000000000000000000000000000000000000000000000000006000350416632ffb3df48114610066578063455f5024146103375780636874404614610361578063b905ad78146105ad575b600080fd5b34801561007257600080fd5b50610335600480360360a081101561008957600080fd5b8101906020810181356401000000008111156100a457600080fd5b8201836020820111156100b657600080fd5b803590602001918460018302840111640100000000831117156100d857600080fd5b91908080601f016020809104026020016040519081016040528093929190818152602001838380828437600092019190915250929594936020810193503591505064010000000081111561012b57600080fd5b82018360208201111561013d57600080fd5b8035906020019184600183028401116401000000008311171561015f57600080fd5b91908080601f01602080910402602001604051908101604052809392919081815260200183838082843760009201919091525092959493602081019350359150506401000000008111156101b257600080fd5b8201836020820111156101c457600080fd5b803590602001918460018302840111640100000000831117156101e657600080fd5b91908080601f016020809104026020016040519081016040528093929190818152602001838380828437600092019190915250929594936020810193503591505064010000000081111561023957600080fd5b82018360208201111561024b57600080fd5b8035906020019184600183028401116401000000008311171561026d57600080fd5b91908080601f01602080910402602001604051908101604052809392919081815260200183838082843760009201919091525092959493602081019350359150506401000000008111156102c057600080fd5b8201836020820111156102d257600080fd5b803590602001918460018302840111640100000000831117156102f457600080fd5b91908080601f0160208091040260200160405190810160405280939291908181526020018383808284376000920191909152509295506105d4945050505050565b005b34801561034357600080fd5b506103356004803603602081101561035a57600080fd5b503561091c565b34801561036d57600080fd5b5061038b6004803603602081101561038457600080fd5b5035610d40565b6040518088815260200180602001871515151581526020018060200180602001806020018060200186810386528c818151815260200191508051906020019080838360005b838110156103e85781810151838201526020016103d0565b50505050905090810190601f1680156104155780820380516001836020036101000a031916815260200191505b5086810385528a5181528a516020918201918c019080838360005b83811015610448578181015183820152602001610430565b50505050905090810190601f1680156104755780820380516001836020036101000a031916815260200191505b5086810384528951815289516020918201918b019080838360005b838110156104a8578181015183820152602001610490565b50505050905090810190601f1680156104d55780820380516001836020036101000a031916815260200191505b5086810383528851815288516020918201918a019080838360005b838110156105085781810151838201526020016104f0565b50505050905090810190601f1680156105355780820380516001836020036101000a031916815260200191505b50868103825287518152875160209182019189019080838360005b83811015610568578181015183820152602001610550565b50505050905090810190601f1680156105955780820380516001836020036101000a031916815260200191505b509c5050505050505050505050505060405180910390f35b3480156105b957600080fd5b506105c2611032565b60408051918252519081900360200190f35b6000805460019081018083556040805160e08101825282815260208082018b8152828401879052606083018b9052608083018a905260a0830189905260c08301889052938652848152919094208451815591518051929361063d93908501929190910190611038565b50604082015160028201805460ff191691151591909117905560608201518051610671916003840191602090910190611038565b506080820151805161068d916004840191602090910190611038565b5060a082015180516106a9916005840191602090910190611038565b5060c082015180516106c5916006840191602090910190611038565b509050507faa251e0cc6d510b7ed5b682cc434f6a0c4a50336dca302eaf5cd0240988dd998600054866000878787876040518088815260200180602001871515151581526020018060200180602001806020018060200186810386528c818151815260200191508051906020019080838360005b83811015610751578181015183820152602001610739565b50505050905090810190601f16801561077e5780820380516001836020036101000a031916815260200191505b5086810385528a5181528a516020918201918c019080838360005b838110156107b1578181015183820152602001610799565b50505050905090810190601f1680156107de5780820380516001836020036101000a031916815260200191505b5086810384528951815289516020918201918b019080838360005b838110156108115781810151838201526020016107f9565b50505050905090810190601f16801561083e5780820380516001836020036101000a031916815260200191505b5086810383528851815288516020918201918a019080838360005b83811015610871578181015183820152602001610859565b50505050905090810190601f16801561089e5780820380516001836020036101000a031916815260200191505b50868103825287518152875160209182019189019080838360005b838110156108d15781810151838201526020016108b9565b50505050905090810190601f1680156108fe5780820380516001836020036101000a031916815260200191505b509c5050505050505050505050505060405180910390a15050505050565b6109246110b6565b600082815260016020818152604092839020835160e0810185528154815281840180548651600296821615610100026000190190911695909504601f810185900485028601850190965285855290949193858401939092908301828280156109cd5780601f106109a2576101008083540402835291602001916109cd565b820191906000526020600020905b8154815290600101906020018083116109b057829003601f168201915b505050918352505060028281015460ff16151560208084019190915260038401805460408051601f60001960018516156101000201909316959095049182018490048402850184018152818552909401939091830182828015610a715780601f10610a4657610100808354040283529160200191610a71565b820191906000526020600020905b815481529060010190602001808311610a5457829003601f168201915b505050918352505060048201805460408051602060026001851615610100026000190190941693909304601f8101849004840282018401909252818152938201939291830182828015610b055780601f10610ada57610100808354040283529160200191610b05565b820191906000526020600020905b815481529060010190602001808311610ae857829003601f168201915b505050918352505060058201805460408051602060026001851615610100026000190190941693909304601f8101849004840282018401909252818152938201939291830182828015610b995780601f10610b6e57610100808354040283529160200191610b99565b820191906000526020600020905b815481529060010190602001808311610b7c57829003601f168201915b505050918352505060068201805460408051602060026001851615610100026000190190941693909304601f8101849004840282018401909252818152938201939291830182828015610c2d5780601f10610c0257610100808354040283529160200191610c2d565b820191906000526020600020905b815481529060010190602001808311610c1057829003601f168201915b5050509190925250505060408082018051159052600084815260016020818152929091208351815582840151805194955085949193610c7193850192910190611038565b50604082015160028201805460ff191691151591909117905560608201518051610ca5916003840191602090910190611038565b5060808201518051610cc1916004840191602090910190611038565b5060a08201518051610cdd916005840191602090910190611038565b5060c08201518051610cf9916006840191602090910190611038565b5050506040808201518151848152901515602082015281517f5bb3f28444bfcf8bc8a49a85f1d1f51aa218675f7af7d0f161c5ac47877111af929181900390910190a15050565b600160208181526000928352604092839020805481840180548651600296821615610100026000190190911695909504601f81018590048502860185019096528585529094919392909190830182828015610ddc5780601f10610db157610100808354040283529160200191610ddc565b820191906000526020600020905b815481529060010190602001808311610dbf57829003601f168201915b505050506002838101546003850180546040805160206101006001851615026000190190931695909504601f8101839004830286018301909152808552959660ff90931695929450909190830182828015610e785780601f10610e4d57610100808354040283529160200191610e78565b820191906000526020600020905b815481529060010190602001808311610e5b57829003601f168201915b5050505060048301805460408051602060026001851615610100026000190190941693909304601f8101849004840282018401909252818152949594935090830182828015610f085780601f10610edd57610100808354040283529160200191610f08565b820191906000526020600020905b815481529060010190602001808311610eeb57829003601f168201915b5050505060058301805460408051602060026001851615610100026000190190941693909304601f8101849004840282018401909252818152949594935090830182828015610f985780601f10610f6d57610100808354040283529160200191610f98565b820191906000526020600020905b815481529060010190602001808311610f7b57829003601f168201915b5050505060068301805460408051602060026001851615610100026000190190941693909304601f81018490048402820184019092528181529495949350908301828280156110285780601f10610ffd57610100808354040283529160200191611028565b820191906000526020600020905b81548152906001019060200180831161100b57829003601f168201915b5050505050905087565b60005481565b828054600181600116156101000203166002900490600052602060002090601f016020900481019282601f1061107957805160ff19168380011785556110a6565b828001600101855582156110a6579182015b828111156110a657825182559160200191906001019061108b565b506110b29291506110f6565b5090565b60e0604051908101604052806000815260200160608152602001600015158152602001606081526020016060815260200160608152602001606081525090565b61111091905b808211156110b257600081556001016110fc565b9056fea165627a7a723058204f6574911a182e8088b797605ea9e0e58b3afc06eae9ec6bb417a12a049bdfe20029",
  "source": "//SPDX-License-Identifier: MIT\npragma solidity >=0.4.22 <0.9.0;\n\ncontract PartiLivro {\n    uint public bookCount = 0;\n\n    struct Book {\n        uint id;\n        string content;\n        bool completed;\n        string author;\n        string publishing;\n        string pages;\n        string date;\n    }\n\n    mapping(uint => Book) public books;\n\n    event BookCreated(\n        uint id,\n        string content,\n        bool completed,\n        string author,\n        string publishing,\n        string pages,\n        string date\n    );\n\n    event BookCompleted(\n        uint id,\n        bool completed\n    );\n\n    constructor() public {\n        createBook(\"1986\", \"Jorge Orwell\", \"Editora Alpha\", \"416\", \"01/07/2009\" );\n    }\n\n    function createBook(string memory _content, string memory _author, string memory _publishing, string memory _pages, string memory _date) public {\n        bookCount ++;\n        books[bookCount] = Book(bookCount, _content, false, _author, _publishing, _pages, _date);\n        emit BookCreated(bookCount, _content, false, _author, _publishing, _pages, _date);\n    }\n\n    function toggleCompleted(uint _id) public {\n    Book memory _book = books[_id];\n    _book.completed = !_book.completed;\n    books[_id] = _book;\n    emit BookCompleted(_id, _book.completed);\n  }\n}\n\n",
  "sourcePath": "/mnt/c/code/eth-todo-list/contracts/PartiLivro.sol",
  "compiler": {
    "name": "solc",
    "version": "0.5.0+commit.1d4f565a.Emscripten.clang"
  },
  "schemaVersion": "3.0.1",
  "updatedAt": "2022-12-04T22:10:42.770Z",
  "devdoc": {
    "methods": {}
  },
  "userdoc": {
    "methods": {}
  }
}